{
  "contractName": "simple_smart_contract",
  "abi": [
    {
      "anonymous": false,
      "inputs": [
        {
          "indexed": false,
          "internalType": "address",
          "name": "_curr_owner",
          "type": "address"
        },
        {
          "indexed": false,
          "internalType": "uint256",
          "name": "deposited_amount",
          "type": "uint256"
        }
      ],
      "name": "Deposit",
      "type": "event"
    },
    {
      "anonymous": false,
      "inputs": [
        {
          "indexed": false,
          "internalType": "address",
          "name": "_curr_owner",
          "type": "address"
        },
        {
          "indexed": false,
          "internalType": "uint256",
          "name": "deposited_amount",
          "type": "uint256"
        },
        {
          "indexed": false,
          "internalType": "uint256",
          "name": "curr_balance",
          "type": "uint256"
        }
      ],
      "name": "Withdraw",
      "type": "event"
    },
    {
      "constant": true,
      "inputs": [
        {
          "internalType": "address",
          "name": "",
          "type": "address"
        }
      ],
      "name": "accounts",
      "outputs": [
        {
          "internalType": "uint256",
          "name": "balance",
          "type": "uint256"
        },
        {
          "internalType": "uint256",
          "name": "counter",
          "type": "uint256"
        },
        {
          "internalType": "bool",
          "name": "active",
          "type": "bool"
        }
      ],
      "payable": false,
      "stateMutability": "view",
      "type": "function"
    },
    {
      "constant": false,
      "inputs": [],
      "name": "create_account",
      "outputs": [],
      "payable": false,
      "stateMutability": "nonpayable",
      "type": "function"
    },
    {
      "constant": false,
      "inputs": [],
      "name": "deposit",
      "outputs": [],
      "payable": true,
      "stateMutability": "payable",
      "type": "function"
    },
    {
      "constant": false,
      "inputs": [
        {
          "internalType": "uint256",
          "name": "_amount",
          "type": "uint256"
        }
      ],
      "name": "withdraw",
      "outputs": [],
      "payable": true,
      "stateMutability": "payable",
      "type": "function"
    },
    {
      "constant": true,
      "inputs": [],
      "name": "getBalance",
      "outputs": [
        {
          "internalType": "uint256",
          "name": "",
          "type": "uint256"
        }
      ],
      "payable": false,
      "stateMutability": "view",
      "type": "function"
    },
    {
      "constant": true,
      "inputs": [],
      "name": "getActivity",
      "outputs": [
        {
          "internalType": "uint256",
          "name": "",
          "type": "uint256"
        }
      ],
      "payable": false,
      "stateMutability": "view",
      "type": "function"
    },
    {
      "constant": true,
      "inputs": [],
      "name": "getStatus",
      "outputs": [
        {
          "internalType": "bool",
          "name": "",
          "type": "bool"
        }
      ],
      "payable": false,
      "stateMutability": "view",
      "type": "function"
    }
  ],
  "bytecode": "0x608060405234801561001057600080fd5b5061098c806100206000396000f3fe6080604052600436106100705760003560e01c8063509f86331161004e578063509f8633146100fd5780635e5c06e214610114578063caf51bda1461018b578063d0e30db0146101b657610070565b806312065fe0146100755780632e1a7d4d146100a05780634e69d560146100ce575b600080fd5b34801561008157600080fd5b5061008a6101c0565b6040518082815260200191505060405180910390f35b6100cc600480360360208110156100b657600080fd5b8101908080359060200190929190505050610209565b005b3480156100da57600080fd5b506100e3610569565b604051808215151515815260200191505060405180910390f35b34801561010957600080fd5b506101126105bf565b005b34801561012057600080fd5b506101636004803603602081101561013757600080fd5b81019080803573ffffffffffffffffffffffffffffffffffffffff169060200190929190505050610662565b6040518084815260200183815260200182151515158152602001935050505060405180910390f35b34801561019757600080fd5b506101a0610699565b6040518082815260200191505060405180910390f35b6101be6106e2565b005b60008060003373ffffffffffffffffffffffffffffffffffffffff1673ffffffffffffffffffffffffffffffffffffffff16815260200190815260200160002060000154905090565b6000803373ffffffffffffffffffffffffffffffffffffffff1673ffffffffffffffffffffffffffffffffffffffff16815260200190815260200160002060020160009054906101000a900460ff166102ca576040517f08c379a000000000000000000000000000000000000000000000000000000000815260040180806020018281038252601a8152602001807f416363636f756e74206973206e6f74207265676973746572656400000000000081525060200191505060405180910390fd5b600a6000803373ffffffffffffffffffffffffffffffffffffffff1673ffffffffffffffffffffffffffffffffffffffff168152602001908152602001600020600101541015610365576040517f08c379a00000000000000000000000000000000000000000000000000000000081526004018080602001828103825260318152602001806109276031913960400191505060405180910390fd5b806000803373ffffffffffffffffffffffffffffffffffffffff1673ffffffffffffffffffffffffffffffffffffffff16815260200190815260200160002060000154101561041c576040517f08c379a00000000000000000000000000000000000000000000000000000000081526004018080602001828103825260128152602001807f496e73756666696369656e742066756e6473000000000000000000000000000081525060200191505060405180910390fd5b806000803373ffffffffffffffffffffffffffffffffffffffff1673ffffffffffffffffffffffffffffffffffffffff168152602001908152602001600020600001600082825403925050819055503373ffffffffffffffffffffffffffffffffffffffff166108fc829081150290604051600060405180830381858888f193505050501580156104b1573d6000803e3d6000fd5b507ff279e6a1f5e320cca91135676d9cb6e44ca8a08c0b88342bcdb1144f6511b56833826000803373ffffffffffffffffffffffffffffffffffffffff1673ffffffffffffffffffffffffffffffffffffffff16815260200190815260200160002060000154604051808473ffffffffffffffffffffffffffffffffffffffff1673ffffffffffffffffffffffffffffffffffffffff168152602001838152602001828152602001935050505060405180910390a150565b60008060003373ffffffffffffffffffffffffffffffffffffffff1673ffffffffffffffffffffffffffffffffffffffff16815260200190815260200160002060020160009054906101000a900460ff16905090565b60016000803373ffffffffffffffffffffffffffffffffffffffff1673ffffffffffffffffffffffffffffffffffffffff16815260200190815260200160002060020160006101000a81548160ff02191690831515021790555060008060003373ffffffffffffffffffffffffffffffffffffffff1673ffffffffffffffffffffffffffffffffffffffff16815260200190815260200160002060010181905550565b60006020528060005260406000206000915090508060000154908060010154908060020160009054906101000a900460ff16905083565b60008060003373ffffffffffffffffffffffffffffffffffffffff1673ffffffffffffffffffffffffffffffffffffffff16815260200190815260200160002060010154905090565b6000803373ffffffffffffffffffffffffffffffffffffffff1673ffffffffffffffffffffffffffffffffffffffff16815260200190815260200160002060020160009054906101000a900460ff166107a3576040517f08c379a000000000000000000000000000000000000000000000000000000000815260040180806020018281038252601a8152602001807f416363636f756e74206973206e6f74207265676973746572656400000000000081525060200191505060405180910390fd5b600a34101561081a576040517f08c379a000000000000000000000000000000000000000000000000000000000815260040180806020018281038252601d8152602001807f4d696e696d756d206465706f736974656420746f6b656e20697320313000000081525060200191505060405180910390fd5b346000803373ffffffffffffffffffffffffffffffffffffffff1673ffffffffffffffffffffffffffffffffffffffff1681526020019081526020016000206000016000828254019250508190555060016000803373ffffffffffffffffffffffffffffffffffffffff1673ffffffffffffffffffffffffffffffffffffffff168152602001908152602001600020600101600082825401925050819055507fe1fffcc4923d04b559f4d29a8bfc6cda04eb5b0d3c460751c2402c5c5cc9109c3334604051808373ffffffffffffffffffffffffffffffffffffffff1673ffffffffffffffffffffffffffffffffffffffff1681526020018281526020019250505060405180910390a156fe4d696e696d756d20313020616374697669747920286465706f7369742920746f20706572666f726d207769746864726177a265627a7a7231582002954735fd7c136360628161fa8dc2a9d1d1dc58c99bf3ca4fe7ea3877b85e1064736f6c63430005100032",
  "source": "pragma solidity >=0.4.22 <0.8.0;\r\n\r\ncontract simple_smart_contract{\r\n\r\n    // an account has attributes:\r\n    // 1. Balance, the amount of token stored under an account\r\n    // 2. Counter, at least 10-times deposit before can withdraw\r\n    // 3. An account is active or not\r\n    struct account{\r\n        uint256 balance;\r\n        uint256 counter;\r\n        bool active;\r\n    }\r\n\r\n    mapping (address => account) public accounts;\r\n\r\n    // create account\r\n    function create_account() public{\r\n        accounts[msg.sender].active = true;\r\n        accounts[msg.sender].counter = 0;\r\n    }\r\n\r\n    // event\r\n    event Deposit(address _curr_owner,uint256 deposited_amount);\r\n    event Withdraw(address _curr_owner, uint256 deposited_amount, uint256 curr_balance);\r\n\r\n    // deposit function\r\n    function deposit() public payable{\r\n        // must be active account\r\n        require(accounts[msg.sender].active,'Acccount is not registered');\r\n        // minimum deposit is 10\r\n        require(msg.value >= 10,'Minimum deposited token is 10');\r\n        // increase balance\r\n        accounts[msg.sender].balance += msg.value;\r\n        // add 1 to counter\r\n        accounts[msg.sender].counter += 1;\r\n        //  \r\n\r\n        // emit deposit event\r\n        emit Deposit(msg.sender,msg.value);\r\n    }\r\n\r\n    // withdraw function\r\n    function withdraw(uint256 _amount)public payable{\r\n        // must be active account\r\n        require(accounts[msg.sender].active,'Acccount is not registered');\r\n        //  at least 10 times deposit\r\n        require(accounts[msg.sender].counter >= 10,'Minimum 10 activity (deposit) to perform withdraw');\r\n        //  the amount of withdraw tokens is less than the balance\r\n        require(accounts[msg.sender].balance >= _amount, 'Insufficient funds');\r\n\r\n        //  proceed to withdraw\r\n        accounts[msg.sender].balance -= _amount;\r\n        msg.sender.transfer(_amount);\r\n        \r\n        // emit event\r\n        emit Withdraw(msg.sender,_amount,accounts[msg.sender].balance);\r\n    }\r\n\r\n\r\n    //   see their balance\r\n    function getBalance() public view returns (uint256){\r\n        return accounts[msg.sender].balance;\r\n    }\r\n    \r\n    // see current acitvity\r\n    function getActivity() public view returns (uint256){\r\n        return accounts[msg.sender].counter;\r\n    }\r\n\r\n    //  get active status of current address\r\n    function getStatus() public view returns (bool){\r\n        return accounts[msg.sender].active;\r\n    }\r\n\r\n}",
  "sourcePath": "D:/Belajar/HOT/blockchain engineer/contracts/simple_smart_contract.sol",
  "compiler": {
    "name": "solc",
    "version": "0.5.16+commit.9c3226ce.Emscripten.clang"
  },
  "schemaVersion": "3.0.22",
  "updatedAt": "2020-10-17T14:09:17.285Z",
  "networkType": "ethereum",
  "devdoc": {
    "methods": {}
  },
  "userdoc": {
    "methods": {}
  }
}